{
  "contractName": "Rating",
  "abi": [
    {
      "constant": true,
      "inputs": [
        {
          "name": "",
          "type": "uint256"
        }
      ],
      "name": "restaurantList",
      "outputs": [
        {
          "name": "",
          "type": "bytes32"
        }
      ],
      "payable": false,
      "stateMutability": "view",
      "type": "function"
    },
    {
      "constant": true,
      "inputs": [
        {
          "name": "",
          "type": "bytes32"
        }
      ],
      "name": "ratingsReceived",
      "outputs": [
        {
          "name": "",
          "type": "uint8"
        }
      ],
      "payable": false,
      "stateMutability": "view",
      "type": "function"
    },
    {
      "inputs": [
        {
          "name": "restaurantNames",
          "type": "bytes32[]"
        }
      ],
      "payable": false,
      "stateMutability": "nonpayable",
      "type": "constructor"
    },
    {
      "constant": true,
      "inputs": [
        {
          "name": "restaurant",
          "type": "bytes32"
        }
      ],
      "name": "totalVotesFor",
      "outputs": [
        {
          "name": "",
          "type": "uint8"
        }
      ],
      "payable": false,
      "stateMutability": "view",
      "type": "function"
    },
    {
      "constant": false,
      "inputs": [
        {
          "name": "restaurant",
          "type": "bytes32"
        }
      ],
      "name": "voteForRestaurant",
      "outputs": [],
      "payable": false,
      "stateMutability": "nonpayable",
      "type": "function"
    }
  ],
  "bytecode": "0x6060604052341561000f57600080fd5b604051610308380380610308833981016040528080518201919050508060019080519060200190610041929190610048565b50506100c0565b82805482825590600052602060002090810192821561008a579160200282015b82811115610089578251829060001916905591602001919060010190610068565b5b509050610097919061009b565b5090565b6100bd91905b808211156100b95760008160009055506001016100a1565b5090565b90565b610239806100cf6000396000f300606060405260043610610062576000357c0100000000000000000000000000000000000000000000000000000000900463ffffffff1680632f265cf7146100675780634b4acadc146100a85780635f4187b0146100e7578063f37caaaf14610128575b600080fd5b341561007257600080fd5b61008c60048080356000191690602001909190505061014f565b604051808260ff1660ff16815260200191505060405180910390f35b34156100b357600080fd5b6100c96004808035906020019091905050610180565b60405180826000191660001916815260200191505060405180910390f35b34156100f257600080fd5b61010c6004808035600019169060200190919050506101a4565b604051808260ff1660ff16815260200191505060405180910390f35b341561013357600080fd5b61014d6004808035600019169060200190919050506101c4565b005b6000806000836000191660001916815260200190815260200160002060009054906101000a900460ff169050919050565b60018181548110151561018f57fe5b90600052602060002090016000915090505481565b60006020528060005260406000206000915054906101000a900460ff1681565b6001600080836000191660001916815260200190815260200160002060008282829054906101000a900460ff160192506101000a81548160ff021916908360ff160217905550505600a165627a7a72305820590cb1a33a77f3e8bc5c41344b23146240a721874b7f20a7cf8da3005f0cf04e0029",
  "source": "pragma solidity ^0.4.17;\r\ncontract Rating {\r\nmapping (bytes32 => uint8) public ratingsReceived;\r\nbytes32[] public restaurantList;\r\n// 1 - 合約初始化\r\nfunction Rating(bytes32[] restaurantNames) public {\r\n    restaurantList = restaurantNames;\r\n  }\r\n// 2 - 回傳餐廳的投票數\r\nfunction totalVotesFor(bytes32 restaurant) view public returns (uint8) {\r\n    return ratingsReceived[restaurant];\r\n  }\r\n// 3 - 投票，將目前投票數+1\r\nfunction voteForRestaurant(bytes32 restaurant) public {\r\n    ratingsReceived[restaurant] += 1;\r\n  }\r\n}",
  "sourcePath": "C:\\Users\\User\\Desktop\\truffle\\contracts\\Rating.sol",
  "compiler": {
    "name": "solc",
    "version": "0.4.21+commit.dfe3193c.Emscripten.clang"
  },
  "schemaVersion": "2.0.0",
  "updatedAt": "2018-04-08T14:04:34.115Z"
}